:020000040800F2
:1000000000500020F1070008C9070008CD070008CC
:10001000D1070008D5070008D90700080000000034
:10002000000000000000000000000000DD070008E4
:10003000E107000800000000E5070008E9070008E4
:10004000390800083908000839080008390800088C
:10005000390800083908000839080008390800087C
:10006000390800083908000839080008390800086C
:10007000390800083908000839080008390800085C
:10008000390800083908000839080008390800084C
:10009000390800083908000839080008390800083C
:1000A000390800083908000839080008390800082C
:1000B000390800083908000839080008390800081C
:1000C000390800083908000839080008390800080C
:1000D00039080008390800083908000839080008FC
:1000E0003908000839080008390800080000000035
:1000F0000000000000000000000000000000000000
:0C01000000000000000000005FF808F1A3
:10010C0010B5054C237833B9044B13B10448AFF345
:10011C0000800123237010BD1C0000200000000093
:10012C007C11000808B5034B1BB103490348AFF31E
:10013C00008008BD00000000200000207C11000899
:10014C0070B500F041F800210F4D08462C7837228D
:10015C00013404F0030423462C7000F071FA0022E1
:10016C002B781046013303F00303372100F068FAB3
:10017C0000222B781146BDE87040023303F00303D4
:10018C00372000F05DBA00BF38000020002108B510
:10019C000846372200F064FA4FF47A7000F090FBB6
:1001AC0000223721104600F05BFA4FF47A7000F011
:1001BC0087FB00223720114600F052FABDE80840B8
:1001CC004FF47A7000F07CBB0023074A10B45371D3
:1001DC0013809370A2F80330D380A2F80930137205
:1001EC00D37210BC704700BF3C00002083882DE9FF
:1001FC00F041002B00F019820026056806EB46043E
:10020C002B1915F804C00821802293F801809D78E1
:10021C004FE000BF00BF00BF00BF00BF00BF00BF6A
:10022C0000BF00BF00BF00BF00BF00BF00BF00BFCA
:10023C0000BF00BF00BF00BF00BF00BF00BF00BFBA
:10024C0000BF00BF00BF00BF00BF00BF00BF00BFAA
:10025C0000BF00BF00BF00BF00BF00BF00BF00BF9A
:10026C0000BF00BF00BF00BF00BF00BF00BF00BF8A
:10027C0000BF00BF00BF00BF00BF00BF00BF00BF7A
:10028C00DC682740DF6000BF00BF00BF00BF00BFBD
:10029C0000BF00BF00BF00BF00BF00BF00BF00BF5A
:1002AC0000BF00BF00BF00BF00BF01394FEA5202C0
:1002BC005AD083688489D3F80CE0E74318EA020F1C
:1002CC004EEA0404DC60A4D100BF00BF00BF00BF35
:1002DC0000BF00BF00BF00BF00BF00BF00BF00BF1A
:1002EC0000BF00BF00BF00BF00BF00BFDC682740DD
:1002FC00DF6000BF00BF00BF00BF00BF00BF00BF7A
:10030C0000BF00BF00BF00BF00BF00BF00BF00BFE9
:10031C0000BF00BF00BF00BF00BF00BF00BF00BFD9
:10032C0000BF00BF00BF00BF00BF00BF00BF00BFC9
:10033C0000BF00BF00BF00BF00BF00BF00BF00BFB9
:10034C0000BF00BF00BF00BF00BF00BF00BF00BFA9
:10035C0000BF00BF00BF00BF00BF00BF00BF00BF99
:10036C0001394FEA5202A4D1082180224FE000BF8C
:10037C0000BF00BF00BF00BF00BF00BF00BF00BF79
:10038C0000BF00BF00BF00BF00BF00BF00BF00BF69
:10039C0000BF00BF00BF00BF00BF00BF00BF00BF59
:1003AC0000BF00BF00BF00BF00BF00BF00BF00BF49
:1003BC0000BF00BF00BF00BF00BF00BF00BF00BF39
:1003CC0000BF00BF00BF00BF00BF00BF00BF00BF29
:1003DC0000BF00BF00BF00BF00BF00BFDC682740EC
:1003EC00DF6000BF00BF00BF00BF00BF00BF00BF89
:1003FC0000BF00BF00BF00BF00BF00BF00BF00BFF9
:10040C0000BF00BF00BF01394FEA52025AD08368C7
:10041C008489D3F80CE0E7431CEA020F4EEA04048B
:10042C00DC60A4D100BF00BF00BF00BF00BF00BF95
:10043C0000BF00BF00BF00BF00BF00BF00BF00BFB8
:10044C0000BF00BF00BF00BFDC682740DF6000BFFB
:10045C0000BF00BF00BF00BF00BF00BF00BF00BF98
:10046C0000BF00BF00BF00BF00BF00BF00BF00BF88
:10047C0000BF00BF00BF00BF00BF00BF00BF00BF78
:10048C0000BF00BF00BF00BF00BF00BF00BF00BF68
:10049C0000BF00BF00BF00BF00BF00BF00BF00BF58
:1004AC0000BF00BF00BF00BF00BF00BF00BF00BF48
:1004BC0000BF00BF00BF00BF00BF00BF01394FEA43
:1004CC005202A4D1082180224FE000BF00BF00BF20
:1004DC0000BF00BF00BF00BF00BF00BF00BF00BF18
:1004EC0000BF00BF00BF00BF00BF00BF00BF00BF08
:1004FC0000BF00BF00BF00BF00BF00BF00BF00BFF8
:10050C0000BF00BF00BF00BF00BF00BF00BF00BFE7
:10051C0000BF00BF00BF00BF00BF00BF00BF00BFD7
:10052C0000BF00BF00BF00BF00BF00BF00BF00BFC7
:10053C0000BF00BF00BF00BFDC682740DF6000BF0A
:10054C0000BF00BF00BF00BF00BF00BF00BF00BFA7
:10055C0000BF00BF00BF00BF00BF00BF00BF00BF97
:10056C0000BF01394FEA520259D083688489D3F80D
:10057C000CC0E74315424CEA0404DC60A5D100BF73
:10058C0000BF00BF00BF00BF00BF00BF00BF00BF67
:10059C0000BF00BF00BF00BF00BF00BF00BF00BF57
:1005AC0000BFDC682740DF6000BF00BF00BF00BF9A
:1005BC0000BF00BF00BF00BF00BF00BF00BF00BF37
:1005CC0000BF00BF00BF00BF00BF00BF00BF00BF27
:1005DC0000BF00BF00BF00BF00BF00BF00BF00BF17
:1005EC0000BF00BF00BF00BF00BF00BF00BF00BF07
:1005FC0000BF00BF00BF00BF00BF00BF00BF00BFF7
:10060C0000BF00BF00BF00BF00BF00BF00BF00BFE6
:10061C0000BF00BF00BF01394FEA5202A5D101361D
:10062C008388B6B2B3423FF6E8AD4FF4167300BF01
:10063C0000BF013B9BB2002BF9D1BDE8F08100BF9C
:10064C0010B4054C03EB4303E0541C446170A270DE
:10065C00024810BCFFF7CABD3C000020000000207F
:10066C002DE9F843814688461746084C084E04F19C
:10067C000C0584F8009084F80180A7703046033490
:10068C00FFF7B4FDAC42F4D1BDE8F8833C00002088
:10069C000000002030B5012200244FF480330225E5
:1006AC004FF4E01191B006A806920A920793CDE997
:1006BC000D530F91089401940994CDE90B44CDE9A5
:1006CC000244CDE9044400F06BFA0F224FF480632E
:1006DC0001A82946CDE9025405940192049300F037
:1006EC0057FC11B030BD00BF30B5002489B000F00C
:1006FC00C3F8FFF7CFFFCDE90444CDE906441C4B0A
:10070C0001229969082541F0200199610821986915
:10071C0000F0200001900198986940F00400986165
:10072C00986900F004000290029898690843986157
:10073C009B6910480B400393039B00F02DFA012298
:10074C00032304A90B480694CDE90452079300F047
:10075C0029F90424FFF7F4FC4FF47A7000F0B0F898
:10076C00631E13F0FF04F5D1FFF710FDF1E700BF96
:10077C0000100240000C01400E4B82B09A690E49E9
:10078C0042F001029A619A6902F001020092009A09
:10079C00DA6942F08052DA61DB6903F0805301932D
:1007AC00019B4B6823F0E06343F000734B6002B095
:1007BC00704700BF0010024000000140704700BFAE
:1007CC00FEE700BFFEE700BFFEE700BFFEE700BF8D
:1007DC00704700BF704700BF704700BF00F05EB8A5
:1007EC00704700BF0C480D490D4A002302E0D45855
:1007FC00C4500433C4188C42F9D30A4A0A4C00235F
:10080C0001E013600432A242FBD3FFF7E9FF00F0D2
:10081C008BFCFFF769FF7047000000201C000020D4
:10082C00BC1100081C0000204C000020FEE700005A
:10083C0038B54FF47A730D490D4A09781268B3FB39
:10084C00F1F30546B2FBF3F000F094F808B90F2D64
:10085C0001D9012038BD0446024629464FF0FF302D
:10086C0000F052F8034B20461D6038BD14000020E8
:10087C001000002018000020074A08B51368032058
:10088C0043F01003136000F02DF80020FFF7D0FFA9
:10089C00FFF772FF002008BD00200240034A044B02
:1008AC0011681B780B441360704700BF4800002090
:1008BC0014000020014B1868704700BF480000204E
:1008CC0038B50446FFF7F6FF631C054602D0044B0F
:1008DC001B781C44FFF7EEFF401BA042FAD338BD37
:1008EC00140000204FF6FF01064A0002D36800F402
:1008FC00E0600B4043F0BF6343F400330343D36029
:10090C00704700BF00ED00E0184B30B4DB68C3F358
:10091C000223C3F10705042D03F1040428BF0425A9
:10092C00062C19D94FF0FF34033B9C4022EA0404F7
:10093C004FF0FF32AA4021EA020101FA03F22243EE
:10094C0012010028D2B20ADB00F1604000F56140D0
:10095C0080F8002330BC704700242346E8E7044BA2
:10096C0000F00F0003441A7630BC704700ED00E035
:10097C00FCEC00E00138B0F1807F0DD230B4F025F2
:10098C0000220721054B064C586084F82350104672
:10099C0030BC9A60196070470120704710E000E08D
:1009AC0000ED00E00A68002A00F0DB802DE9F04F32
:1009BC004FF0000A85B05546DFF8D0C1DFF8D0E122
:1009CC006D4FDFF8D08103E0013532FA05F378D0B2
:1009DC000123AB4002EA0304A342F5D14A68122A70
:1009EC0000F09E8000F28780022A00F09D807CD966
:1009FC00032A69D0112A02D1CB6803F1040AFF2C17
:100A0C0066D881460368AA000F2606FA02FB23EA81
:100A1C000B030AFA02F21343C9F800304A68D300F8
:100A2C0061D5DCF8189025F0030349F00109CCF8E6
:100A3C001890DCF8189003F1804309F00109CDF807
:100A4C000C9003F5803305F00309DDF80CB04FEA88
:100A5C008909D3F808B006FA09F62BEA06067045A0
:100A6C00019611D0404563D0444EB0427AD0444EEA
:100A7C00B0420CBF4FF0030B4FF0040B019E0BFA6E
:100A8C0009F946EA090601969E603B68D6034CBFFD
:100A9C002343A3433B607B6896034CBF2343A34390
:100AAC007B60BB68D6024CBF2343A343BB6092025E
:100ABC00FB6815D51C43FC600A68013532FA05F356
:100ACC0086D105B0BDE8F08FFF2C4FF0000A98D905
:100ADC0005F18042083A4368920000F1040993E75B
:100AEC0023EA0404FC600A686EE7A2B1012A86D1ED
:100AFC00D1F80CA083E7234EB2420CD020D9224E61
:100B0C00B24208D006F58036B24204D0A6F5801663
:100B1C00B2427FF474AF8A68E2B94FF0040A6EE710
:100B2C00CB6803F10C0A6AE7CB6803F1080A66E7A5
:100B3C004FF0010B0BFA09F946EA09060196A3E7F7
:100B4C00A6F58016B242E6D006F58036B2427FF4A6
:100B5C0056AFE0E7012A0CBF036143614FF0080A6E
:100B6C004DE770474FF0020B019E0BFA09F946EA6C
:100B7C000906019688E700BF0004014000100140FF
:100B8C000014014000002110000031100010024040
:100B9C0000080140000C014002B9090401617047D2
:100BAC00002800F055812DE9F041036882B0DD0783
:100BBC00044635D5A8494A6802F00C02042A00F014
:100BCC0005814A6802F00C02082A00F0FB80636879
:100BDC00B3F5803F10D0002B00F02081B3F5A02F8F
:100BEC0000F078819C4B1A6822F480321A601A68E3
:100BFC0022F480221A6004E0974A136843F480338D
:100C0C001360FFF757FE944D064605E0FFF752FEC2
:100C1C00801B642800F2F5802B689A03F6D52368B4
:100C2C009F074DD41A0722D5A369002B00F0BA8078
:100C3C0001228A4B884D1A60FFF73CFE064605E000
:100C4C00FFF738FE801B022800F2DB806B6A9B07E3
:100C5C00F6D5834B834A1B68A2FB03235B0A0193E3
:100C6C0000BF019B5A1E0192002BF9D123685D072E
:100C7C0069D5794BDA69D00000F1EC800125DA698D
:100C8C0042F08052DA61DB6903F080530093009BE1
:100C9C00754B1A68D10540F1A380E368012B37D05E
:100CAC00002B00F0E780052B6B4B1A6A00F01F81BC
:100CBC0022F001021A621A6A22F004021A622CE073
:100CCC00654A516811F00C0F61D0516801F00C01AC
:100CDC00082959D02369002B00F0EB800122634BCB
:100CEC005D4D1A60FFF7E6FD064605E0FFF7E2FDF5
:100CFC00801B022800F285802B689807F6D52B689C
:100D0C00626923F0F80343EAC2032B60236889E786
:100D1C00514A136A43F001031362FFF7CBFD4E4EA9
:100D2C00804641F2883705E0FFF7C4FDA0EB0800D0
:100D3C00B84266D8336A9B07F6D525B1464AD369C3
:100D4C0023F08053D361E069D0B1434D6A6802F05F
:100D5C000C02082A00F0D38002284FF00001444A0C
:100D6C0000F0DE801160FFF7A5FD2C46054604E07F
:100D7C00FFF7A0FD401B022843D823689B01F7D442
:100D8C00002002B0BDE8F0815268D603A2D4324AEA
:100D9C001268950739D52269012A36D0012002B094
:100DAC00BDE8F0812D4A2C4D1360FFF783FD0646FC
:100DBC0004E0FFF77FFD801B022822D86B6A9F0797
:100DCC00F7D453E74A68D0037FF501AF224A126883
:100DDC0091037FF525AF6268002A7FF421AFDDE730
:100DEC001A681E4642F480721A60FFF763FD0746CC
:100DFC003368DA053FF551AFFFF75CFDC01B642883
:100E0C00F6D9032002B0BDE8F081134960690A6885
:100E1C0022F0F80242EAC0020A6003E703F18043C1
:100E2C0003F504331A681D4622F480321A601A68DE
:100E3C0022F480221A60FFF73DFD064604E0FFF71E
:100E4C0039FD801B6428DCD82B689B03F7D4E6E6BD
:100E5C000120704700251BE700100240800442422D
:100E6C0010000020D34D6210007000400000424280
:100E7C006000424203F1804303F504331A6A1E46B4
:100E8C0022F001021A621A6A41F2883822F0040236
:100E9C001A62FFF70FFD074604E0FFF70BFDC01BBE
:100EAC004045AED8336A9807F7D4002D3FF44BAFCA
:100EBC0044E7344A344D1360FFF7FCFC064604E06B
:100ECC00FFF7F8FC801B02289BD82B689907F7D4F6
:100EDC002368A7E603F18043A3F53C331A6842F478
:100EEC0080221A601A6842F480321A6089E642F055
:100EFC0004021A621A6A42F001021A620DE7012812
:100F0C003FF44DAF6B68226A03F4803191427FF459
:100F1C0045AF606A03F47013181A18BF01203EE73E
:100F2C001160FFF7C7FC064605E0FFF7C3FC801B0A
:100F3C0002283FF666AF2B689901F6D4226AB2F507
:100F4C00803F05D16B68A16823F400330B436B60C1
:100F5C0001250D4B606A5968024321F474110B484A
:100F6C000A435A6005601C46FFF7A4FC054605E0E1
:100F7C00FFF7A0FC401B02283FF643AF23689A0101
:100F8C00F6D5FDE6000042420010024060004242ED
:100F9C0078B15D4A136803F007038B420BD21368D8
:100FAC0023F007030B431360136803F007038B4212
:100FBC0001D0012070472DE9F041036886B09D07F0
:100FCC0014D55C0704D5514C626842F4E06262604F
:100FDC001A0704D54D4C626842F4605262604B4C67
:100FEC008568626822F0F0022A436260DB070446DF
:100FFC000D4620D54268454B012A1B686FD0022A4A
:10100C007ED0980727D5414E41F28838736823F07B
:10101C00030313437360FFF74DFC074604E0FFF72F
:10102C0049FCC01B404569D87368626803F00C0327
:10103C00B3EB820FF3D1344A136803F00703AB42CE
:10104C000DD9136823F007032B431360136803F0C7
:10105C000703AB4203D0012006B0BDE8F081236842
:10106C00590706D52949E0684A6822F4E062024330
:10107C004A601A0707D5254A2169536823F460533F
:10108C0043EAC103536040F20122214B06ACADF898
:10109C0004200FCB04E90F001C494A6802F00C0332
:1010AC00082B1AD1C2F38343234413F8100CD30337
:1010BC0018D4184B03FB00F3144A1748526817490D
:1010CC00C2F30312805C164AC34008681360FFF732
:1010DC00AFFB002006B0BDE8F081124BECE79F039C
:1010EC0091D4B8E74A680F4BC2F3404203FB00F3BC
:1010FC00224412F8142CB3FBF2F3DDE70320ABE728
:10110C009E0180D4A7E700BF0020024000100240DF
:10111C009411000800093D00A411000818000020DB
:10112C001000002000127A0070B500250C4E0D4CFA
:10113C00A41BA410A54209D100F01AF800250A4EF0
:10114C000A4CA41BA410A54205D170BD56F825303D
:10115C0098470135EEE756F8253098470135F2E708
:10116C00B4110008B4110008B4110008B81100083B
:10117C00F8B500BFF8BC08BC9E467047F8B500BF78
:08118C00F8BC08BC9E46704748
:1011940002030405060708090A0B0C0D0E0F1010B4
:1011A4000000000000000000010203040607080913
:0411B40031010008FD
:0411B8000D0100081D
:1011BC003C00002004000000000C0140080000006E
:0C11CC000024F4000100000010000000EE
:04000005080007F1F7
:00000001FF
